:04000000B4EF3FF02A
:107F68000001CCEF3FF0C282C2B2FED7C45012006B
:107F7800F294010ED56ED76AD66AD58E12007E6A43
:107F88007F6A7E80C16A380EC06E010EC26E010C17
:107F9800026A016A010E036E956A9280F19E7C80E6
:107FA8009380BCEC3FF0C3EC3FF0026606D0D8905B
:107FB8000336036602D0010E036E020406E1D89070
:107FC8000332036602D0800E036E03C08CFF81A0CB
:107FD80002D0016A09D0016607D0010E016E02665F
:107FE80002D0026E01D0026AF2A4F1D7F294B7EC83
:087FF8003FF0D76ED66AD9D71D
:020000040020DA
:08000000FFFFFFFFFFFFFFFF00
:020000040030CA
:0E000000FF081F1EFF8981FF0FC00FE00F4099
:00000001FF
